{
  "_format": "hh-sol-artifact-1",
  "contractName": "GuardianSBT",
  "sourceName": "contracts/GuardianSBT.sol",
  "abi": [
    {
      "inputs": [],
      "stateMutability": "nonpayable",
      "type": "constructor"
    },
    {
      "inputs": [
        {
          "internalType": "address",
          "name": "sender",
          "type": "address"
        },
        {
          "internalType": "uint256",
          "name": "tokenId",
          "type": "uint256"
        },
        {
          "internalType": "address",
          "name": "owner",
          "type": "address"
        }
      ],
      "name": "ERC721IncorrectOwner",
      "type": "error"
    },
    {
      "inputs": [
        {
          "internalType": "address",
          "name": "operator",
          "type": "address"
        },
        {
          "internalType": "uint256",
          "name": "tokenId",
          "type": "uint256"
        }
      ],
      "name": "ERC721InsufficientApproval",
      "type": "error"
    },
    {
      "inputs": [
        {
          "internalType": "address",
          "name": "approver",
          "type": "address"
        }
      ],
      "name": "ERC721InvalidApprover",
      "type": "error"
    },
    {
      "inputs": [
        {
          "internalType": "address",
          "name": "operator",
          "type": "address"
        }
      ],
      "name": "ERC721InvalidOperator",
      "type": "error"
    },
    {
      "inputs": [
        {
          "internalType": "address",
          "name": "owner",
          "type": "address"
        }
      ],
      "name": "ERC721InvalidOwner",
      "type": "error"
    },
    {
      "inputs": [
        {
          "internalType": "address",
          "name": "receiver",
          "type": "address"
        }
      ],
      "name": "ERC721InvalidReceiver",
      "type": "error"
    },
    {
      "inputs": [
        {
          "internalType": "address",
          "name": "sender",
          "type": "address"
        }
      ],
      "name": "ERC721InvalidSender",
      "type": "error"
    },
    {
      "inputs": [
        {
          "internalType": "uint256",
          "name": "tokenId",
          "type": "uint256"
        }
      ],
      "name": "ERC721NonexistentToken",
      "type": "error"
    },
    {
      "inputs": [
        {
          "internalType": "address",
          "name": "owner",
          "type": "address"
        }
      ],
      "name": "OwnableInvalidOwner",
      "type": "error"
    },
    {
      "inputs": [
        {
          "internalType": "address",
          "name": "account",
          "type": "address"
        }
      ],
      "name": "OwnableUnauthorizedAccount",
      "type": "error"
    },
    {
      "anonymous": false,
      "inputs": [
        {
          "indexed": true,
          "internalType": "address",
          "name": "owner",
          "type": "address"
        },
        {
          "indexed": true,
          "internalType": "address",
          "name": "approved",
          "type": "address"
        },
        {
          "indexed": true,
          "internalType": "uint256",
          "name": "tokenId",
          "type": "uint256"
        }
      ],
      "name": "Approval",
      "type": "event"
    },
    {
      "anonymous": false,
      "inputs": [
        {
          "indexed": true,
          "internalType": "address",
          "name": "owner",
          "type": "address"
        },
        {
          "indexed": true,
          "internalType": "address",
          "name": "operator",
          "type": "address"
        },
        {
          "indexed": false,
          "internalType": "bool",
          "name": "approved",
          "type": "bool"
        }
      ],
      "name": "ApprovalForAll",
      "type": "event"
    },
    {
      "anonymous": false,
      "inputs": [
        {
          "indexed": true,
          "internalType": "address",
          "name": "guardian",
          "type": "address"
        },
        {
          "indexed": false,
          "internalType": "uint256",
          "name": "tokenId",
          "type": "uint256"
        }
      ],
      "name": "GuardianAdded",
      "type": "event"
    },
    {
      "anonymous": false,
      "inputs": [
        {
          "indexed": true,
          "internalType": "address",
          "name": "guardian",
          "type": "address"
        },
        {
          "indexed": false,
          "internalType": "uint256",
          "name": "tokenId",
          "type": "uint256"
        }
      ],
      "name": "GuardianRemoved",
      "type": "event"
    },
    {
      "anonymous": false,
      "inputs": [
        {
          "indexed": true,
          "internalType": "address",
          "name": "previousOwner",
          "type": "address"
        },
        {
          "indexed": true,
          "internalType": "address",
          "name": "newOwner",
          "type": "address"
        }
      ],
      "name": "OwnershipTransferred",
      "type": "event"
    },
    {
      "anonymous": false,
      "inputs": [
        {
          "indexed": true,
          "internalType": "address",
          "name": "from",
          "type": "address"
        },
        {
          "indexed": true,
          "internalType": "address",
          "name": "to",
          "type": "address"
        },
        {
          "indexed": true,
          "internalType": "uint256",
          "name": "tokenId",
          "type": "uint256"
        }
      ],
      "name": "Transfer",
      "type": "event"
    },
    {
      "inputs": [
        {
          "internalType": "address",
          "name": "to",
          "type": "address"
        },
        {
          "internalType": "uint256",
          "name": "tokenId",
          "type": "uint256"
        }
      ],
      "name": "approve",
      "outputs": [],
      "stateMutability": "nonpayable",
      "type": "function"
    },
    {
      "inputs": [
        {
          "internalType": "address",
          "name": "owner",
          "type": "address"
        }
      ],
      "name": "balanceOf",
      "outputs": [
        {
          "internalType": "uint256",
          "name": "",
          "type": "uint256"
        }
      ],
      "stateMutability": "view",
      "type": "function"
    },
    {
      "inputs": [
        {
          "internalType": "uint256",
          "name": "tokenId",
          "type": "uint256"
        }
      ],
      "name": "burn",
      "outputs": [],
      "stateMutability": "nonpayable",
      "type": "function"
    },
    {
      "inputs": [
        {
          "internalType": "uint256",
          "name": "tokenId",
          "type": "uint256"
        }
      ],
      "name": "getApproved",
      "outputs": [
        {
          "internalType": "address",
          "name": "",
          "type": "address"
        }
      ],
      "stateMutability": "view",
      "type": "function"
    },
    {
      "inputs": [
        {
          "internalType": "address",
          "name": "owner",
          "type": "address"
        },
        {
          "internalType": "address",
          "name": "operator",
          "type": "address"
        }
      ],
      "name": "isApprovedForAll",
      "outputs": [
        {
          "internalType": "bool",
          "name": "",
          "type": "bool"
        }
      ],
      "stateMutability": "view",
      "type": "function"
    },
    {
      "inputs": [
        {
          "internalType": "address",
          "name": "account",
          "type": "address"
        }
      ],
      "name": "isGuardian",
      "outputs": [
        {
          "internalType": "bool",
          "name": "",
          "type": "bool"
        }
      ],
      "stateMutability": "view",
      "type": "function"
    },
    {
      "inputs": [
        {
          "internalType": "address",
          "name": "to",
          "type": "address"
        }
      ],
      "name": "mint",
      "outputs": [],
      "stateMutability": "nonpayable",
      "type": "function"
    },
    {
      "inputs": [],
      "name": "name",
      "outputs": [
        {
          "internalType": "string",
          "name": "",
          "type": "string"
        }
      ],
      "stateMutability": "view",
      "type": "function"
    },
    {
      "inputs": [],
      "name": "owner",
      "outputs": [
        {
          "internalType": "address",
          "name": "",
          "type": "address"
        }
      ],
      "stateMutability": "view",
      "type": "function"
    },
    {
      "inputs": [
        {
          "internalType": "uint256",
          "name": "tokenId",
          "type": "uint256"
        }
      ],
      "name": "ownerOf",
      "outputs": [
        {
          "internalType": "address",
          "name": "",
          "type": "address"
        }
      ],
      "stateMutability": "view",
      "type": "function"
    },
    {
      "inputs": [],
      "name": "renounceOwnership",
      "outputs": [],
      "stateMutability": "nonpayable",
      "type": "function"
    },
    {
      "inputs": [
        {
          "internalType": "address",
          "name": "from",
          "type": "address"
        },
        {
          "internalType": "address",
          "name": "to",
          "type": "address"
        },
        {
          "internalType": "uint256",
          "name": "tokenId",
          "type": "uint256"
        }
      ],
      "name": "safeTransferFrom",
      "outputs": [],
      "stateMutability": "nonpayable",
      "type": "function"
    },
    {
      "inputs": [
        {
          "internalType": "address",
          "name": "from",
          "type": "address"
        },
        {
          "internalType": "address",
          "name": "to",
          "type": "address"
        },
        {
          "internalType": "uint256",
          "name": "tokenId",
          "type": "uint256"
        },
        {
          "internalType": "bytes",
          "name": "data",
          "type": "bytes"
        }
      ],
      "name": "safeTransferFrom",
      "outputs": [],
      "stateMutability": "nonpayable",
      "type": "function"
    },
    {
      "inputs": [
        {
          "internalType": "address",
          "name": "operator",
          "type": "address"
        },
        {
          "internalType": "bool",
          "name": "approved",
          "type": "bool"
        }
      ],
      "name": "setApprovalForAll",
      "outputs": [],
      "stateMutability": "nonpayable",
      "type": "function"
    },
    {
      "inputs": [
        {
          "internalType": "bytes4",
          "name": "interfaceId",
          "type": "bytes4"
        }
      ],
      "name": "supportsInterface",
      "outputs": [
        {
          "internalType": "bool",
          "name": "",
          "type": "bool"
        }
      ],
      "stateMutability": "view",
      "type": "function"
    },
    {
      "inputs": [],
      "name": "symbol",
      "outputs": [
        {
          "internalType": "string",
          "name": "",
          "type": "string"
        }
      ],
      "stateMutability": "view",
      "type": "function"
    },
    {
      "inputs": [
        {
          "internalType": "uint256",
          "name": "tokenId",
          "type": "uint256"
        }
      ],
      "name": "tokenURI",
      "outputs": [
        {
          "internalType": "string",
          "name": "",
          "type": "string"
        }
      ],
      "stateMutability": "view",
      "type": "function"
    },
    {
      "inputs": [
        {
          "internalType": "address",
          "name": "from",
          "type": "address"
        },
        {
          "internalType": "address",
          "name": "to",
          "type": "address"
        },
        {
          "internalType": "uint256",
          "name": "tokenId",
          "type": "uint256"
        }
      ],
      "name": "transferFrom",
      "outputs": [],
      "stateMutability": "nonpayable",
      "type": "function"
    },
    {
      "inputs": [
        {
          "internalType": "address",
          "name": "newOwner",
          "type": "address"
        }
      ],
      "name": "transferOwnership",
      "outputs": [],
      "stateMutability": "nonpayable",
      "type": "function"
    }
  ],
  "bytecode": "0x60806040523480156200001157600080fd5b50336040518060400160405280601381526020017f5370656e64477561726420477561726469616e000000000000000000000000008152506040518060400160405280600881526020017f475541524449414e000000000000000000000000000000000000000000000000815250816000908162000090919062000472565b508060019081620000a2919062000472565b505050600073ffffffffffffffffffffffffffffffffffffffff168173ffffffffffffffffffffffffffffffffffffffff16036200011a5760006040517f1e4fbdf70000000000000000000000000000000000000000000000000000000081526004016200011191906200059e565b60405180910390fd5b6200012b816200013260201b60201c565b50620005bb565b6000600660009054906101000a900473ffffffffffffffffffffffffffffffffffffffff16905081600660006101000a81548173ffffffffffffffffffffffffffffffffffffffff021916908373ffffffffffffffffffffffffffffffffffffffff1602179055508173ffffffffffffffffffffffffffffffffffffffff168173ffffffffffffffffffffffffffffffffffffffff167f8be0079c531659141344cd1fd0a4f28419497f9722a3daafe3b4186f6b6457e060405160405180910390a35050565b600081519050919050565b7f4e487b7100000000000000000000000000000000000000000000000000000000600052604160045260246000fd5b7f4e487b7100000000000000000000000000000000000000000000000000000000600052602260045260246000fd5b600060028204905060018216806200027a57607f821691505b60208210810362000290576200028f62000232565b5b50919050565b60008190508160005260206000209050919050565b60006020601f8301049050919050565b600082821b905092915050565b600060088302620002fa7fffffffffffffffffffffffffffffffffffffffffffffffffffffffffffffffff82620002bb565b620003068683620002bb565b95508019841693508086168417925050509392505050565b6000819050919050565b6000819050919050565b6000620003536200034d62000347846200031e565b62000328565b6200031e565b9050919050565b6000819050919050565b6200036f8362000332565b620003876200037e826200035a565b848454620002c8565b825550505050565b600090565b6200039e6200038f565b620003ab81848462000364565b505050565b5b81811015620003d357620003c760008262000394565b600181019050620003b1565b5050565b601f8211156200042257620003ec8162000296565b620003f784620002ab565b8101602085101562000407578190505b6200041f6200041685620002ab565b830182620003b0565b50505b505050565b600082821c905092915050565b6000620004476000198460080262000427565b1980831691505092915050565b600062000462838362000434565b9150826002028217905092915050565b6200047d82620001f8565b67ffffffffffffffff81111562000499576200049862000203565b5b620004a5825462000261565b620004b2828285620003d7565b600060209050601f831160018114620004ea5760008415620004d5578287015190505b620004e1858262000454565b86555062000551565b601f198416620004fa8662000296565b60005b828110156200052457848901518255600182019150602085019450602081019050620004fd565b8683101562000544578489015162000540601f89168262000434565b8355505b6001600288020188555050505b505050505050565b600073ffffffffffffffffffffffffffffffffffffffff82169050919050565b6000620005868262000559565b9050919050565b620005988162000579565b82525050565b6000602082019050620005b560008301846200058d565b92915050565b6125df80620005cb6000396000f3fe608060405234801561001057600080fd5b50600436106101215760003560e01c80636a627842116100ad578063a22cb46511610071578063a22cb46514610306578063b88d4fde14610322578063c87b56dd1461033e578063e985e9c51461036e578063f2fde38b1461039e57610121565b80636a6278421461027457806370a0823114610290578063715018a6146102c05780638da5cb5b146102ca57806395d89b41146102e857610121565b80630c68ba21116100f45780630c68ba21146101c057806323b872dd146101f057806342842e0e1461020c57806342966c68146102285780636352211e1461024457610121565b806301ffc9a71461012657806306fdde0314610156578063081812fc14610174578063095ea7b3146101a4575b600080fd5b610140600480360381019061013b9190611c22565b6103ba565b60405161014d9190611c6a565b60405180910390f35b61015e61049c565b60405161016b9190611d15565b60405180910390f35b61018e60048036038101906101899190611d6d565b61052e565b60405161019b9190611ddb565b60405180910390f35b6101be60048036038101906101b99190611e22565b61054a565b005b6101da60048036038101906101d59190611e62565b610560565b6040516101e79190611c6a565b60405180910390f35b61020a60048036038101906102059190611e8f565b610574565b005b61022660048036038101906102219190611e8f565b610676565b005b610242600480360381019061023d9190611d6d565b610696565b005b61025e60048036038101906102599190611d6d565b610706565b60405161026b9190611ddb565b60405180910390f35b61028e60048036038101906102899190611e62565b610718565b005b6102aa60048036038101906102a59190611e62565b610851565b6040516102b79190611ef1565b60405180910390f35b6102c861090b565b005b6102d261091f565b6040516102df9190611ddb565b60405180910390f35b6102f0610949565b6040516102fd9190611d15565b60405180910390f35b610320600480360381019061031b9190611f38565b6109db565b005b61033c600480360381019061033791906120ad565b6109f1565b005b61035860048036038101906103539190611d6d565b610a16565b6040516103659190611d15565b60405180910390f35b61038860048036038101906103839190612130565b610a7f565b6040516103959190611c6a565b60405180910390f35b6103b860048036038101906103b39190611e62565b610b13565b005b60007f80ac58cd000000000000000000000000000000000000000000000000000000007bffffffffffffffffffffffffffffffffffffffffffffffffffffffff1916827bffffffffffffffffffffffffffffffffffffffffffffffffffffffff1916148061048557507f5b5e139f000000000000000000000000000000000000000000000000000000007bffffffffffffffffffffffffffffffffffffffffffffffffffffffff1916827bffffffffffffffffffffffffffffffffffffffffffffffffffffffff1916145b80610495575061049482610b99565b5b9050919050565b6060600080546104ab9061219f565b80601f01602080910402602001604051908101604052809291908181526020018280546104d79061219f565b80156105245780601f106104f957610100808354040283529160200191610524565b820191906000526020600020905b81548152906001019060200180831161050757829003601f168201915b5050505050905090565b600061053982610c03565b5061054382610c8b565b9050919050565b61055c8282610557610cc8565b610cd0565b5050565b60008061056c83610851565b119050919050565b600073ffffffffffffffffffffffffffffffffffffffff168273ffffffffffffffffffffffffffffffffffffffff16036105e65760006040517f64a0ae920000000000000000000000000000000000000000000000000000000081526004016105dd9190611ddb565b60405180910390fd5b60006105fa83836105f5610cc8565b610ce2565b90508373ffffffffffffffffffffffffffffffffffffffff168173ffffffffffffffffffffffffffffffffffffffff1614610670578382826040517f64283d7b000000000000000000000000000000000000000000000000000000008152600401610667939291906121d0565b60405180910390fd5b50505050565b610691838383604051806020016040528060008152506109f1565b505050565b61069e610daf565b60006106a982610706565b90506106b482610e36565b8073ffffffffffffffffffffffffffffffffffffffff167fbc92161fee7c8f66fcc67cb974d0c9b1439030462bd0d5201c21b01f89355b23836040516106fa9190611ef1565b60405180910390a25050565b600061071182610c03565b9050919050565b610720610daf565b600073ffffffffffffffffffffffffffffffffffffffff168173ffffffffffffffffffffffffffffffffffffffff160361078f576040517f08c379a000000000000000000000000000000000000000000000000000000000815260040161078690612253565b60405180910390fd5b600061079a82610851565b146107da576040517f08c379a00000000000000000000000000000000000000000000000000000000081526004016107d1906122e5565b60405180910390fd5b6000600760008154809291906107ef90612334565b9190505590506107ff8282610ebc565b8173ffffffffffffffffffffffffffffffffffffffff167f6276832b43b1ca1eab9c38b577dc5ba939a807f5ca7b7e5b6f1f09e80e487fad826040516108459190611ef1565b60405180910390a25050565b60008073ffffffffffffffffffffffffffffffffffffffff168273ffffffffffffffffffffffffffffffffffffffff16036108c45760006040517f89c62b640000000000000000000000000000000000000000000000000000000081526004016108bb9190611ddb565b60405180910390fd5b600360008373ffffffffffffffffffffffffffffffffffffffff1673ffffffffffffffffffffffffffffffffffffffff168152602001908152602001600020549050919050565b610913610daf565b61091d6000610eda565b565b6000600660009054906101000a900473ffffffffffffffffffffffffffffffffffffffff16905090565b6060600180546109589061219f565b80601f01602080910402602001604051908101604052809291908181526020018280546109849061219f565b80156109d15780601f106109a6576101008083540402835291602001916109d1565b820191906000526020600020905b8154815290600101906020018083116109b457829003601f168201915b5050505050905090565b6109ed6109e6610cc8565b8383610fa0565b5050565b6109fc848484610574565b610a10610a07610cc8565b8585858561110f565b50505050565b6060610a2182610c03565b506000610a2c6112c0565b90506000815111610a4c5760405180602001604052806000815250610a77565b80610a56846112d7565b604051602001610a679291906123b8565b6040516020818303038152906040525b915050919050565b6000600560008473ffffffffffffffffffffffffffffffffffffffff1673ffffffffffffffffffffffffffffffffffffffff16815260200190815260200160002060008373ffffffffffffffffffffffffffffffffffffffff1673ffffffffffffffffffffffffffffffffffffffff16815260200190815260200160002060009054906101000a900460ff16905092915050565b610b1b610daf565b600073ffffffffffffffffffffffffffffffffffffffff168173ffffffffffffffffffffffffffffffffffffffff1603610b8d5760006040517f1e4fbdf7000000000000000000000000000000000000000000000000000000008152600401610b849190611ddb565b60405180910390fd5b610b9681610eda565b50565b60007f01ffc9a7000000000000000000000000000000000000000000000000000000007bffffffffffffffffffffffffffffffffffffffffffffffffffffffff1916827bffffffffffffffffffffffffffffffffffffffffffffffffffffffff1916149050919050565b600080610c0f836113a5565b9050600073ffffffffffffffffffffffffffffffffffffffff168173ffffffffffffffffffffffffffffffffffffffff1603610c8257826040517f7e273289000000000000000000000000000000000000000000000000000000008152600401610c799190611ef1565b60405180910390fd5b80915050919050565b60006004600083815260200190815260200160002060009054906101000a900473ffffffffffffffffffffffffffffffffffffffff169050919050565b600033905090565b610cdd83838360016113e2565b505050565b600080610cee846113a5565b9050600073ffffffffffffffffffffffffffffffffffffffff168173ffffffffffffffffffffffffffffffffffffffff1614158015610d5a5750600073ffffffffffffffffffffffffffffffffffffffff168573ffffffffffffffffffffffffffffffffffffffff1614155b15610d9a576040517f08c379a0000000000000000000000000000000000000000000000000000000008152600401610d919061244e565b60405180910390fd5b610da58585856115a7565b9150509392505050565b610db7610cc8565b73ffffffffffffffffffffffffffffffffffffffff16610dd561091f565b73ffffffffffffffffffffffffffffffffffffffff1614610e3457610df8610cc8565b6040517f118cdaa7000000000000000000000000000000000000000000000000000000008152600401610e2b9190611ddb565b60405180910390fd5b565b6000610e456000836000610ce2565b9050600073ffffffffffffffffffffffffffffffffffffffff168173ffffffffffffffffffffffffffffffffffffffff1603610eb857816040517f7e273289000000000000000000000000000000000000000000000000000000008152600401610eaf9190611ef1565b60405180910390fd5b5050565b610ed68282604051806020016040528060008152506117c1565b5050565b6000600660009054906101000a900473ffffffffffffffffffffffffffffffffffffffff16905081600660006101000a81548173ffffffffffffffffffffffffffffffffffffffff021916908373ffffffffffffffffffffffffffffffffffffffff1602179055508173ffffffffffffffffffffffffffffffffffffffff168173ffffffffffffffffffffffffffffffffffffffff167f8be0079c531659141344cd1fd0a4f28419497f9722a3daafe3b4186f6b6457e060405160405180910390a35050565b600073ffffffffffffffffffffffffffffffffffffffff168273ffffffffffffffffffffffffffffffffffffffff160361101157816040517f5b08ba180000000000000000000000000000000000000000000000000000000081526004016110089190611ddb565b60405180910390fd5b80600560008573ffffffffffffffffffffffffffffffffffffffff1673ffffffffffffffffffffffffffffffffffffffff16815260200190815260200160002060008473ffffffffffffffffffffffffffffffffffffffff1673ffffffffffffffffffffffffffffffffffffffff16815260200190815260200160002060006101000a81548160ff0219169083151502179055508173ffffffffffffffffffffffffffffffffffffffff168373ffffffffffffffffffffffffffffffffffffffff167f17307eab39ab6107e8899845ad3d59bd9653f200f220920489ca2b5937696c31836040516111029190611c6a565b60405180910390a3505050565b60008373ffffffffffffffffffffffffffffffffffffffff163b11156112b9578273ffffffffffffffffffffffffffffffffffffffff1663150b7a02868685856040518563ffffffff1660e01b815260040161116e94939291906124c3565b6020604051808303816000875af19250505080156111aa57506040513d601f19601f820116820180604052508101906111a79190612524565b60015b61122e573d80600081146111da576040519150601f19603f3d011682016040523d82523d6000602084013e6111df565b606091505b50600081510361122657836040517f64a0ae9200000000000000000000000000000000000000000000000000000000815260040161121d9190611ddb565b60405180910390fd5b805160208201fd5b63150b7a0260e01b7bffffffffffffffffffffffffffffffffffffffffffffffffffffffff1916817bffffffffffffffffffffffffffffffffffffffffffffffffffffffff1916146112b757836040517f64a0ae920000000000000000000000000000000000000000000000000000000081526004016112ae9190611ddb565b60405180910390fd5b505b5050505050565b606060405180602001604052806000815250905090565b6060600060016112e6846117e5565b01905060008167ffffffffffffffff81111561130557611304611f82565b5b6040519080825280601f01601f1916602001820160405280156113375781602001600182028036833780820191505090505b509050600082602083010190505b60011561139a578080600190039150507f3031323334353637383961626364656600000000000000000000000000000000600a86061a8153600a858161138e5761138d612551565b5b04945060008503611345575b819350505050919050565b60006002600083815260200190815260200160002060009054906101000a900473ffffffffffffffffffffffffffffffffffffffff169050919050565b808061141b5750600073ffffffffffffffffffffffffffffffffffffffff168273ffffffffffffffffffffffffffffffffffffffff1614155b1561154f57600061142b84610c03565b9050600073ffffffffffffffffffffffffffffffffffffffff168373ffffffffffffffffffffffffffffffffffffffff161415801561149657508273ffffffffffffffffffffffffffffffffffffffff168173ffffffffffffffffffffffffffffffffffffffff1614155b80156114a957506114a78184610a7f565b155b156114eb57826040517fa9fbf51f0000000000000000000000000000000000000000000000000000000081526004016114e29190611ddb565b60405180910390fd5b811561154d57838573ffffffffffffffffffffffffffffffffffffffff168273ffffffffffffffffffffffffffffffffffffffff167f8c5be1e5ebec7d5bd14f71427d1e84f3dd0314c0f7b2291e5b200ac8c7c3b92560405160405180910390a45b505b836004600085815260200190815260200160002060006101000a81548173ffffffffffffffffffffffffffffffffffffffff021916908373ffffffffffffffffffffffffffffffffffffffff16021790555050505050565b6000806115b3846113a5565b9050600073ffffffffffffffffffffffffffffffffffffffff168373ffffffffffffffffffffffffffffffffffffffff16146115f5576115f4818486611938565b5b600073ffffffffffffffffffffffffffffffffffffffff168173ffffffffffffffffffffffffffffffffffffffff1614611686576116376000856000806113e2565b6001600360008373ffffffffffffffffffffffffffffffffffffffff1673ffffffffffffffffffffffffffffffffffffffff168152602001908152602001600020600082825403925050819055505b600073ffffffffffffffffffffffffffffffffffffffff168573ffffffffffffffffffffffffffffffffffffffff1614611709576001600360008773ffffffffffffffffffffffffffffffffffffffff1673ffffffffffffffffffffffffffffffffffffffff168152602001908152602001600020600082825401925050819055505b846002600086815260200190815260200160002060006101000a81548173ffffffffffffffffffffffffffffffffffffffff021916908373ffffffffffffffffffffffffffffffffffffffff160217905550838573ffffffffffffffffffffffffffffffffffffffff168273ffffffffffffffffffffffffffffffffffffffff167fddf252ad1be2c89b69c2b068fc378daa952ba7f163c4a11628f55a4df523b3ef60405160405180910390a4809150509392505050565b6117cb83836119fc565b6117e06117d6610cc8565b600085858561110f565b505050565b600080600090507a184f03e93ff9f4daa797ed6e38ed64bf6a1f0100000000000000008310611843577a184f03e93ff9f4daa797ed6e38ed64bf6a1f010000000000000000838161183957611838612551565b5b0492506040810190505b6d04ee2d6d415b85acef81000000008310611880576d04ee2d6d415b85acef8100000000838161187657611875612551565b5b0492506020810190505b662386f26fc1000083106118af57662386f26fc1000083816118a5576118a4612551565b5b0492506010810190505b6305f5e10083106118d8576305f5e10083816118ce576118cd612551565b5b0492506008810190505b61271083106118fd5761271083816118f3576118f2612551565b5b0492506004810190505b60648310611920576064838161191657611915612551565b5b0492506002810190505b600a831061192f576001810190505b80915050919050565b611943838383611af5565b6119f757600073ffffffffffffffffffffffffffffffffffffffff168373ffffffffffffffffffffffffffffffffffffffff16036119b857806040517f7e2732890000000000000000000000000000000000000000000000000000000081526004016119af9190611ef1565b60405180910390fd5b81816040517f177e802f0000000000000000000000000000000000000000000000000000000081526004016119ee929190612580565b60405180910390fd5b505050565b600073ffffffffffffffffffffffffffffffffffffffff168273ffffffffffffffffffffffffffffffffffffffff1603611a6e5760006040517f64a0ae92000000000000000000000000000000000000000000000000000000008152600401611a659190611ddb565b60405180910390fd5b6000611a7c83836000610ce2565b9050600073ffffffffffffffffffffffffffffffffffffffff168173ffffffffffffffffffffffffffffffffffffffff1614611af05760006040517f73c6ac6e000000000000000000000000000000000000000000000000000000008152600401611ae79190611ddb565b60405180910390fd5b505050565b60008073ffffffffffffffffffffffffffffffffffffffff168373ffffffffffffffffffffffffffffffffffffffff1614158015611bad57508273ffffffffffffffffffffffffffffffffffffffff168473ffffffffffffffffffffffffffffffffffffffff161480611b6e5750611b6d8484610a7f565b5b80611bac57508273ffffffffffffffffffffffffffffffffffffffff16611b9483610c8b565b73ffffffffffffffffffffffffffffffffffffffff16145b5b90509392505050565b6000604051905090565b600080fd5b600080fd5b60007fffffffff0000000000000000000000000000000000000000000000000000000082169050919050565b611bff81611bca565b8114611c0a57600080fd5b50565b600081359050611c1c81611bf6565b92915050565b600060208284031215611c3857611c37611bc0565b5b6000611c4684828501611c0d565b91505092915050565b60008115159050919050565b611c6481611c4f565b82525050565b6000602082019050611c7f6000830184611c5b565b92915050565b600081519050919050565b600082825260208201905092915050565b60005b83811015611cbf578082015181840152602081019050611ca4565b60008484015250505050565b6000601f19601f8301169050919050565b6000611ce782611c85565b611cf18185611c90565b9350611d01818560208601611ca1565b611d0a81611ccb565b840191505092915050565b60006020820190508181036000830152611d2f8184611cdc565b905092915050565b6000819050919050565b611d4a81611d37565b8114611d5557600080fd5b50565b600081359050611d6781611d41565b92915050565b600060208284031215611d8357611d82611bc0565b5b6000611d9184828501611d58565b91505092915050565b600073ffffffffffffffffffffffffffffffffffffffff82169050919050565b6000611dc582611d9a565b9050919050565b611dd581611dba565b82525050565b6000602082019050611df06000830184611dcc565b92915050565b611dff81611dba565b8114611e0a57600080fd5b50565b600081359050611e1c81611df6565b92915050565b60008060408385031215611e3957611e38611bc0565b5b6000611e4785828601611e0d565b9250506020611e5885828601611d58565b9150509250929050565b600060208284031215611e7857611e77611bc0565b5b6000611e8684828501611e0d565b91505092915050565b600080600060608486031215611ea857611ea7611bc0565b5b6000611eb686828701611e0d565b9350506020611ec786828701611e0d565b9250506040611ed886828701611d58565b9150509250925092565b611eeb81611d37565b82525050565b6000602082019050611f066000830184611ee2565b92915050565b611f1581611c4f565b8114611f2057600080fd5b50565b600081359050611f3281611f0c565b92915050565b60008060408385031215611f4f57611f4e611bc0565b5b6000611f5d85828601611e0d565b9250506020611f6e85828601611f23565b9150509250929050565b600080fd5b600080fd5b7f4e487b7100000000000000000000000000000000000000000000000000000000600052604160045260246000fd5b611fba82611ccb565b810181811067ffffffffffffffff82111715611fd957611fd8611f82565b5b80604052505050565b6000611fec611bb6565b9050611ff88282611fb1565b919050565b600067ffffffffffffffff82111561201857612017611f82565b5b61202182611ccb565b9050602081019050919050565b82818337600083830152505050565b600061205061204b84611ffd565b611fe2565b90508281526020810184848401111561206c5761206b611f7d565b5b61207784828561202e565b509392505050565b600082601f83011261209457612093611f78565b5b81356120a484826020860161203d565b91505092915050565b600080600080608085870312156120c7576120c6611bc0565b5b60006120d587828801611e0d565b94505060206120e687828801611e0d565b93505060406120f787828801611d58565b925050606085013567ffffffffffffffff81111561211857612117611bc5565b5b6121248782880161207f565b91505092959194509250565b6000806040838503121561214757612146611bc0565b5b600061215585828601611e0d565b925050602061216685828601611e0d565b9150509250929050565b7f4e487b7100000000000000000000000000000000000000000000000000000000600052602260045260246000fd5b600060028204905060018216806121b757607f821691505b6020821081036121ca576121c9612170565b5b50919050565b60006060820190506121e56000830186611dcc565b6121f26020830185611ee2565b6121ff6040830184611dcc565b949350505050565b7f43616e6e6f74206d696e7420746f207a65726f20616464726573730000000000600082015250565b600061223d601b83611c90565b915061224882612207565b602082019050919050565b6000602082019050818103600083015261226c81612230565b9050919050565b7f4164647265737320616c726561647920686173206120677561726469616e207460008201527f6f6b656e00000000000000000000000000000000000000000000000000000000602082015250565b60006122cf602483611c90565b91506122da82612273565b604082019050919050565b600060208201905081810360008301526122fe816122c2565b9050919050565b7f4e487b7100000000000000000000000000000000000000000000000000000000600052601160045260246000fd5b600061233f82611d37565b91507fffffffffffffffffffffffffffffffffffffffffffffffffffffffffffffffff820361237157612370612305565b5b600182019050919050565b600081905092915050565b600061239282611c85565b61239c818561237c565b93506123ac818560208601611ca1565b80840191505092915050565b60006123c48285612387565b91506123d08284612387565b91508190509392505050565b7f477561726469616e5342543a20746f6b656e20697320736f756c626f756e642060008201527f616e642063616e6e6f74206265207472616e7366657272656400000000000000602082015250565b6000612438603983611c90565b9150612443826123dc565b604082019050919050565b600060208201905081810360008301526124678161242b565b9050919050565b600081519050919050565b600082825260208201905092915050565b60006124958261246e565b61249f8185612479565b93506124af818560208601611ca1565b6124b881611ccb565b840191505092915050565b60006080820190506124d86000830187611dcc565b6124e56020830186611dcc565b6124f26040830185611ee2565b8181036060830152612504818461248a565b905095945050505050565b60008151905061251e81611bf6565b92915050565b60006020828403121561253a57612539611bc0565b5b60006125488482850161250f565b91505092915050565b7f4e487b7100000000000000000000000000000000000000000000000000000000600052601260045260246000fd5b60006040820190506125956000830185611dcc565b6125a26020830184611ee2565b939250505056fea264697066735822122007c715b524bdc0a97f1212416048a06426eb05356da33bcce5c83c8f3354437564736f6c63430008140033",
  "linkReferences": {},
  "deployedLinkReferences": {}
}