{
  "_format": "hh-sol-artifact-1",
  "contractName": "GuardianBadge",
  "sourceName": "contracts/GuardianBadge.sol",
  "abi": [
    {
      "inputs": [],
      "stateMutability": "nonpayable",
      "type": "constructor"
    },
    {
      "inputs": [
        {
          "internalType": "address",
          "name": "sender",
          "type": "address"
        },
        {
          "internalType": "uint256",
          "name": "tokenId",
          "type": "uint256"
        },
        {
          "internalType": "address",
          "name": "owner",
          "type": "address"
        }
      ],
      "name": "ERC721IncorrectOwner",
      "type": "error"
    },
    {
      "inputs": [
        {
          "internalType": "address",
          "name": "operator",
          "type": "address"
        },
        {
          "internalType": "uint256",
          "name": "tokenId",
          "type": "uint256"
        }
      ],
      "name": "ERC721InsufficientApproval",
      "type": "error"
    },
    {
      "inputs": [
        {
          "internalType": "address",
          "name": "approver",
          "type": "address"
        }
      ],
      "name": "ERC721InvalidApprover",
      "type": "error"
    },
    {
      "inputs": [
        {
          "internalType": "address",
          "name": "operator",
          "type": "address"
        }
      ],
      "name": "ERC721InvalidOperator",
      "type": "error"
    },
    {
      "inputs": [
        {
          "internalType": "address",
          "name": "owner",
          "type": "address"
        }
      ],
      "name": "ERC721InvalidOwner",
      "type": "error"
    },
    {
      "inputs": [
        {
          "internalType": "address",
          "name": "receiver",
          "type": "address"
        }
      ],
      "name": "ERC721InvalidReceiver",
      "type": "error"
    },
    {
      "inputs": [
        {
          "internalType": "address",
          "name": "sender",
          "type": "address"
        }
      ],
      "name": "ERC721InvalidSender",
      "type": "error"
    },
    {
      "inputs": [
        {
          "internalType": "uint256",
          "name": "tokenId",
          "type": "uint256"
        }
      ],
      "name": "ERC721NonexistentToken",
      "type": "error"
    },
    {
      "inputs": [
        {
          "internalType": "address",
          "name": "owner",
          "type": "address"
        }
      ],
      "name": "OwnableInvalidOwner",
      "type": "error"
    },
    {
      "inputs": [
        {
          "internalType": "address",
          "name": "account",
          "type": "address"
        }
      ],
      "name": "OwnableUnauthorizedAccount",
      "type": "error"
    },
    {
      "anonymous": false,
      "inputs": [
        {
          "indexed": true,
          "internalType": "address",
          "name": "owner",
          "type": "address"
        },
        {
          "indexed": true,
          "internalType": "address",
          "name": "approved",
          "type": "address"
        },
        {
          "indexed": true,
          "internalType": "uint256",
          "name": "tokenId",
          "type": "uint256"
        }
      ],
      "name": "Approval",
      "type": "event"
    },
    {
      "anonymous": false,
      "inputs": [
        {
          "indexed": true,
          "internalType": "address",
          "name": "owner",
          "type": "address"
        },
        {
          "indexed": true,
          "internalType": "address",
          "name": "operator",
          "type": "address"
        },
        {
          "indexed": false,
          "internalType": "bool",
          "name": "approved",
          "type": "bool"
        }
      ],
      "name": "ApprovalForAll",
      "type": "event"
    },
    {
      "anonymous": false,
      "inputs": [
        {
          "indexed": true,
          "internalType": "address",
          "name": "guardian",
          "type": "address"
        },
        {
          "indexed": true,
          "internalType": "uint256",
          "name": "tokenId",
          "type": "uint256"
        }
      ],
      "name": "BadgeBurned",
      "type": "event"
    },
    {
      "anonymous": false,
      "inputs": [
        {
          "indexed": true,
          "internalType": "address",
          "name": "guardian",
          "type": "address"
        },
        {
          "indexed": true,
          "internalType": "uint256",
          "name": "tokenId",
          "type": "uint256"
        },
        {
          "indexed": false,
          "internalType": "uint8",
          "name": "badgeType",
          "type": "uint8"
        }
      ],
      "name": "BadgeMinted",
      "type": "event"
    },
    {
      "anonymous": false,
      "inputs": [
        {
          "indexed": true,
          "internalType": "address",
          "name": "previousOwner",
          "type": "address"
        },
        {
          "indexed": true,
          "internalType": "address",
          "name": "newOwner",
          "type": "address"
        }
      ],
      "name": "OwnershipTransferred",
      "type": "event"
    },
    {
      "anonymous": false,
      "inputs": [
        {
          "indexed": true,
          "internalType": "address",
          "name": "from",
          "type": "address"
        },
        {
          "indexed": true,
          "internalType": "address",
          "name": "to",
          "type": "address"
        },
        {
          "indexed": true,
          "internalType": "uint256",
          "name": "tokenId",
          "type": "uint256"
        }
      ],
      "name": "Transfer",
      "type": "event"
    },
    {
      "inputs": [
        {
          "internalType": "address",
          "name": "to",
          "type": "address"
        },
        {
          "internalType": "uint256",
          "name": "tokenId",
          "type": "uint256"
        }
      ],
      "name": "approve",
      "outputs": [],
      "stateMutability": "nonpayable",
      "type": "function"
    },
    {
      "inputs": [
        {
          "internalType": "address",
          "name": "account",
          "type": "address"
        }
      ],
      "name": "badgesOf",
      "outputs": [
        {
          "internalType": "uint256[]",
          "name": "tokenIds",
          "type": "uint256[]"
        },
        {
          "internalType": "uint8[]",
          "name": "types",
          "type": "uint8[]"
        },
        {
          "internalType": "uint256[]",
          "name": "mintedAt",
          "type": "uint256[]"
        }
      ],
      "stateMutability": "view",
      "type": "function"
    },
    {
      "inputs": [
        {
          "internalType": "address",
          "name": "owner",
          "type": "address"
        }
      ],
      "name": "balanceOf",
      "outputs": [
        {
          "internalType": "uint256",
          "name": "",
          "type": "uint256"
        }
      ],
      "stateMutability": "view",
      "type": "function"
    },
    {
      "inputs": [
        {
          "internalType": "uint256",
          "name": "tokenId",
          "type": "uint256"
        }
      ],
      "name": "burnBadge",
      "outputs": [],
      "stateMutability": "nonpayable",
      "type": "function"
    },
    {
      "inputs": [
        {
          "internalType": "uint256",
          "name": "tokenId",
          "type": "uint256"
        }
      ],
      "name": "exists",
      "outputs": [
        {
          "internalType": "bool",
          "name": "",
          "type": "bool"
        }
      ],
      "stateMutability": "view",
      "type": "function"
    },
    {
      "inputs": [
        {
          "internalType": "uint256",
          "name": "tokenId",
          "type": "uint256"
        }
      ],
      "name": "getApproved",
      "outputs": [
        {
          "internalType": "address",
          "name": "",
          "type": "address"
        }
      ],
      "stateMutability": "view",
      "type": "function"
    },
    {
      "inputs": [
        {
          "internalType": "address",
          "name": "owner",
          "type": "address"
        },
        {
          "internalType": "address",
          "name": "operator",
          "type": "address"
        }
      ],
      "name": "isApprovedForAll",
      "outputs": [
        {
          "internalType": "bool",
          "name": "",
          "type": "bool"
        }
      ],
      "stateMutability": "view",
      "type": "function"
    },
    {
      "inputs": [
        {
          "internalType": "address",
          "name": "to",
          "type": "address"
        },
        {
          "internalType": "uint8",
          "name": "badgeType",
          "type": "uint8"
        }
      ],
      "name": "mintBadge",
      "outputs": [],
      "stateMutability": "nonpayable",
      "type": "function"
    },
    {
      "inputs": [],
      "name": "name",
      "outputs": [
        {
          "internalType": "string",
          "name": "",
          "type": "string"
        }
      ],
      "stateMutability": "view",
      "type": "function"
    },
    {
      "inputs": [],
      "name": "owner",
      "outputs": [
        {
          "internalType": "address",
          "name": "",
          "type": "address"
        }
      ],
      "stateMutability": "view",
      "type": "function"
    },
    {
      "inputs": [
        {
          "internalType": "uint256",
          "name": "tokenId",
          "type": "uint256"
        }
      ],
      "name": "ownerOf",
      "outputs": [
        {
          "internalType": "address",
          "name": "",
          "type": "address"
        }
      ],
      "stateMutability": "view",
      "type": "function"
    },
    {
      "inputs": [],
      "name": "renounceOwnership",
      "outputs": [],
      "stateMutability": "nonpayable",
      "type": "function"
    },
    {
      "inputs": [
        {
          "internalType": "address",
          "name": "from",
          "type": "address"
        },
        {
          "internalType": "address",
          "name": "to",
          "type": "address"
        },
        {
          "internalType": "uint256",
          "name": "tokenId",
          "type": "uint256"
        }
      ],
      "name": "safeTransferFrom",
      "outputs": [],
      "stateMutability": "nonpayable",
      "type": "function"
    },
    {
      "inputs": [
        {
          "internalType": "address",
          "name": "from",
          "type": "address"
        },
        {
          "internalType": "address",
          "name": "to",
          "type": "address"
        },
        {
          "internalType": "uint256",
          "name": "tokenId",
          "type": "uint256"
        },
        {
          "internalType": "bytes",
          "name": "data",
          "type": "bytes"
        }
      ],
      "name": "safeTransferFrom",
      "outputs": [],
      "stateMutability": "nonpayable",
      "type": "function"
    },
    {
      "inputs": [
        {
          "internalType": "address",
          "name": "operator",
          "type": "address"
        },
        {
          "internalType": "bool",
          "name": "approved",
          "type": "bool"
        }
      ],
      "name": "setApprovalForAll",
      "outputs": [],
      "stateMutability": "nonpayable",
      "type": "function"
    },
    {
      "inputs": [
        {
          "internalType": "bytes4",
          "name": "interfaceId",
          "type": "bytes4"
        }
      ],
      "name": "supportsInterface",
      "outputs": [
        {
          "internalType": "bool",
          "name": "",
          "type": "bool"
        }
      ],
      "stateMutability": "view",
      "type": "function"
    },
    {
      "inputs": [],
      "name": "symbol",
      "outputs": [
        {
          "internalType": "string",
          "name": "",
          "type": "string"
        }
      ],
      "stateMutability": "view",
      "type": "function"
    },
    {
      "inputs": [
        {
          "internalType": "uint256",
          "name": "tokenId",
          "type": "uint256"
        }
      ],
      "name": "tokenURI",
      "outputs": [
        {
          "internalType": "string",
          "name": "",
          "type": "string"
        }
      ],
      "stateMutability": "view",
      "type": "function"
    },
    {
      "inputs": [
        {
          "internalType": "address",
          "name": "from",
          "type": "address"
        },
        {
          "internalType": "address",
          "name": "to",
          "type": "address"
        },
        {
          "internalType": "uint256",
          "name": "tokenId",
          "type": "uint256"
        }
      ],
      "name": "transferFrom",
      "outputs": [],
      "stateMutability": "nonpayable",
      "type": "function"
    },
    {
      "inputs": [
        {
          "internalType": "address",
          "name": "newOwner",
          "type": "address"
        }
      ],
      "name": "transferOwnership",
      "outputs": [],
      "stateMutability": "nonpayable",
      "type": "function"
    }
  ],
  "bytecode": "0x60806040523480156200001157600080fd5b50336040518060400160405280601981526020017f5370656e64477561726420477561726469616e204261646765000000000000008152506040518060400160405280600481526020017f4742444700000000000000000000000000000000000000000000000000000000815250816000908162000090919062000472565b508060019081620000a2919062000472565b505050600073ffffffffffffffffffffffffffffffffffffffff168173ffffffffffffffffffffffffffffffffffffffff16036200011a5760006040517f1e4fbdf70000000000000000000000000000000000000000000000000000000081526004016200011191906200059e565b60405180910390fd5b6200012b816200013260201b60201c565b50620005bb565b6000600660009054906101000a900473ffffffffffffffffffffffffffffffffffffffff16905081600660006101000a81548173ffffffffffffffffffffffffffffffffffffffff021916908373ffffffffffffffffffffffffffffffffffffffff1602179055508173ffffffffffffffffffffffffffffffffffffffff168173ffffffffffffffffffffffffffffffffffffffff167f8be0079c531659141344cd1fd0a4f28419497f9722a3daafe3b4186f6b6457e060405160405180910390a35050565b600081519050919050565b7f4e487b7100000000000000000000000000000000000000000000000000000000600052604160045260246000fd5b7f4e487b7100000000000000000000000000000000000000000000000000000000600052602260045260246000fd5b600060028204905060018216806200027a57607f821691505b60208210810362000290576200028f62000232565b5b50919050565b60008190508160005260206000209050919050565b60006020601f8301049050919050565b600082821b905092915050565b600060088302620002fa7fffffffffffffffffffffffffffffffffffffffffffffffffffffffffffffffff82620002bb565b620003068683620002bb565b95508019841693508086168417925050509392505050565b6000819050919050565b6000819050919050565b6000620003536200034d62000347846200031e565b62000328565b6200031e565b9050919050565b6000819050919050565b6200036f8362000332565b620003876200037e826200035a565b848454620002c8565b825550505050565b600090565b6200039e6200038f565b620003ab81848462000364565b505050565b5b81811015620003d357620003c760008262000394565b600181019050620003b1565b5050565b601f8211156200042257620003ec8162000296565b620003f784620002ab565b8101602085101562000407578190505b6200041f6200041685620002ab565b830182620003b0565b50505b505050565b600082821c905092915050565b6000620004476000198460080262000427565b1980831691505092915050565b600062000462838362000434565b9150826002028217905092915050565b6200047d82620001f8565b67ffffffffffffffff81111562000499576200049862000203565b5b620004a5825462000261565b620004b2828285620003d7565b600060209050601f831160018114620004ea5760008415620004d5578287015190505b620004e1858262000454565b86555062000551565b601f198416620004fa8662000296565b60005b828110156200052457848901518255600182019150602085019450602081019050620004fd565b8683101562000544578489015162000540601f89168262000434565b8355505b6001600288020188555050505b505050505050565b600073ffffffffffffffffffffffffffffffffffffffff82169050919050565b6000620005868262000559565b9050919050565b620005988162000579565b82525050565b6000602082019050620005b560008301846200058d565b92915050565b612c2780620005cb6000396000f3fe608060405234801561001057600080fd5b506004361061012c5760003560e01c8063715018a6116100ad578063b88d4fde11610071578063b88d4fde1461032d578063c87b56dd14610349578063d12c1e2814610379578063e985e9c5146103ab578063f2fde38b146103db5761012c565b8063715018a6146102af5780638da5cb5b146102b957806395d89b41146102d7578063a22cb465146102f5578063aa131a69146103115761012c565b806342842e0e116100f457806342842e0e146101e75780634f558e791461020357806355de28ae146102335780636352211e1461024f57806370a082311461027f5761012c565b806301ffc9a71461013157806306fdde0314610161578063081812fc1461017f578063095ea7b3146101af57806323b872dd146101cb575b600080fd5b61014b60048036038101906101469190611dac565b6103f7565b6040516101589190611df4565b60405180910390f35b6101696104d9565b6040516101769190611e9f565b60405180910390f35b61019960048036038101906101949190611ef7565b61056b565b6040516101a69190611f65565b60405180910390f35b6101c960048036038101906101c49190611fac565b610587565b005b6101e560048036038101906101e09190611fec565b6105c2565b005b61020160048036038101906101fc9190611fec565b6106c4565b005b61021d60048036038101906102189190611ef7565b6106e4565b60405161022a9190611df4565b60405180910390f35b61024d60048036038101906102489190611ef7565b610725565b005b61026960048036038101906102649190611ef7565b6108c3565b6040516102769190611f65565b60405180910390f35b6102996004803603810190610294919061203f565b6108d5565b6040516102a6919061207b565b60405180910390f35b6102b761098f565b005b6102c16109a3565b6040516102ce9190611f65565b60405180910390f35b6102df6109cd565b6040516102ec9190611e9f565b60405180910390f35b61030f600480360381019061030a91906120c2565b610a5f565b005b61032b6004803603810190610326919061213b565b610a9a565b005b610347600480360381019061034291906122b0565b610c49565b005b610363600480360381019061035e9190611ef7565b610c6e565b6040516103709190611e9f565b60405180910390f35b610393600480360381019061038e919061203f565b610d1d565b6040516103a2939291906124af565b60405180910390f35b6103c560048036038101906103c091906124fb565b610f2f565b6040516103d29190611df4565b60405180910390f35b6103f560048036038101906103f0919061203f565b610fc3565b005b60007f80ac58cd000000000000000000000000000000000000000000000000000000007bffffffffffffffffffffffffffffffffffffffffffffffffffffffff1916827bffffffffffffffffffffffffffffffffffffffffffffffffffffffff191614806104c257507f5b5e139f000000000000000000000000000000000000000000000000000000007bffffffffffffffffffffffffffffffffffffffffffffffffffffffff1916827bffffffffffffffffffffffffffffffffffffffffffffffffffffffff1916145b806104d257506104d182611049565b5b9050919050565b6060600080546104e89061256a565b80601f01602080910402602001604051908101604052809291908181526020018280546105149061256a565b80156105615780601f1061053657610100808354040283529160200191610561565b820191906000526020600020905b81548152906001019060200180831161054457829003601f168201915b5050505050905090565b6000610576826110b3565b506105808261113b565b9050919050565b6040517f08c379a00000000000000000000000000000000000000000000000000000000081526004016105b99061260d565b60405180910390fd5b600073ffffffffffffffffffffffffffffffffffffffff168273ffffffffffffffffffffffffffffffffffffffff16036106345760006040517f64a0ae9200000000000000000000000000000000000000000000000000000000815260040161062b9190611f65565b60405180910390fd5b60006106488383610643611178565b611180565b90508373ffffffffffffffffffffffffffffffffffffffff168173ffffffffffffffffffffffffffffffffffffffff16146106be578382826040517f64283d7b0000000000000000000000000000000000000000000000000000000081526004016106b59392919061262d565b60405180910390fd5b50505050565b6106df83838360405180602001604052806000815250610c49565b505050565b60008073ffffffffffffffffffffffffffffffffffffffff166107068361139a565b73ffffffffffffffffffffffffffffffffffffffff1614159050919050565b61072d6113d7565b6000610738826108c3565b90506107438261145e565b6000600960008373ffffffffffffffffffffffffffffffffffffffff1673ffffffffffffffffffffffffffffffffffffffff168152602001908152602001600020905060005b818054905081101561084757838282815481106107a9576107a8612664565b5b9060005260206000200154036108345781600183805490506107cb91906126c2565b815481106107dc576107db612664565b5b90600052602060002001548282815481106107fa576107f9612664565b5b906000526020600020018190555081805480610819576108186126f6565b5b60019003818190600052602060002001600090559055610847565b808061083f90612725565b915050610789565b5060086000848152602001908152602001600020600080820160006101000a81549060ff021916905560018201600090555050828273ffffffffffffffffffffffffffffffffffffffff167f21efcae153b58616332d7f7ee4eb0b72bd5b472048c613a4107d750a710b640260405160405180910390a3505050565b60006108ce826110b3565b9050919050565b60008073ffffffffffffffffffffffffffffffffffffffff168273ffffffffffffffffffffffffffffffffffffffff16036109485760006040517f89c62b6400000000000000000000000000000000000000000000000000000000815260040161093f9190611f65565b60405180910390fd5b600360008373ffffffffffffffffffffffffffffffffffffffff1673ffffffffffffffffffffffffffffffffffffffff168152602001908152602001600020549050919050565b6109976113d7565b6109a160006114e4565b565b6000600660009054906101000a900473ffffffffffffffffffffffffffffffffffffffff16905090565b6060600180546109dc9061256a565b80601f0160208091040260200160405190810160405280929190818152602001828054610a089061256a565b8015610a555780601f10610a2a57610100808354040283529160200191610a55565b820191906000526020600020905b815481529060010190602001808311610a3857829003601f168201915b5050505050905090565b6040517f08c379a0000000000000000000000000000000000000000000000000000000008152600401610a919061260d565b60405180910390fd5b610aa26113d7565b600073ffffffffffffffffffffffffffffffffffffffff168273ffffffffffffffffffffffffffffffffffffffff1603610b11576040517f08c379a0000000000000000000000000000000000000000000000000000000008152600401610b08906127b9565b60405180910390fd5b600060076000815480929190610b2690612725565b919050559050610b3683826115aa565b60405180604001604052808360ff168152602001428152506008600083815260200190815260200160002060008201518160000160006101000a81548160ff021916908360ff16021790555060208201518160010155905050600960008473ffffffffffffffffffffffffffffffffffffffff1673ffffffffffffffffffffffffffffffffffffffff168152602001908152602001600020819080600181540180825580915050600190039060005260206000200160009091909190915055808373ffffffffffffffffffffffffffffffffffffffff167f6e79522d33e3590933a0f11623ebc984abab3d341dd3e9b88e4e2503b15d9ab684604051610c3c91906127e8565b60405180910390a3505050565b610c548484846105c2565b610c68610c5f611178565b858585856115c8565b50505050565b6060610c79826106e4565b610cb8576040517f08c379a0000000000000000000000000000000000000000000000000000000008152600401610caf9061284f565b60405180910390fd5b6000600860008481526020019081526020016000209050610cd883611779565b610cf58260000160009054906101000a900460ff1660ff16611779565b604051602001610d069291906129db565b604051602081830303815290604052915050919050565b60608060606000600960008673ffffffffffffffffffffffffffffffffffffffff1673ffffffffffffffffffffffffffffffffffffffff16815260200190815260200160002090506000818054905090508067ffffffffffffffff811115610d8857610d87612185565b5b604051908082528060200260200182016040528015610db65781602001602082028036833780820191505090505b5094508067ffffffffffffffff811115610dd357610dd2612185565b5b604051908082528060200260200182016040528015610e015781602001602082028036833780820191505090505b5093508067ffffffffffffffff811115610e1e57610e1d612185565b5b604051908082528060200260200182016040528015610e4c5781602001602082028036833780820191505090505b50925060005b81811015610f25576000838281548110610e6f57610e6e612664565b5b9060005260206000200154905080878381518110610e9057610e8f612664565b5b60200260200101818152505060006008600083815260200190815260200160002090508060000160009054906101000a900460ff16878481518110610ed857610ed7612664565b5b602002602001019060ff16908160ff16815250508060010154868481518110610f0457610f03612664565b5b60200260200101818152505050508080610f1d90612725565b915050610e52565b5050509193909250565b6000600560008473ffffffffffffffffffffffffffffffffffffffff1673ffffffffffffffffffffffffffffffffffffffff16815260200190815260200160002060008373ffffffffffffffffffffffffffffffffffffffff1673ffffffffffffffffffffffffffffffffffffffff16815260200190815260200160002060009054906101000a900460ff16905092915050565b610fcb6113d7565b600073ffffffffffffffffffffffffffffffffffffffff168173ffffffffffffffffffffffffffffffffffffffff160361103d5760006040517f1e4fbdf70000000000000000000000000000000000000000000000000000000081526004016110349190611f65565b60405180910390fd5b611046816114e4565b50565b60007f01ffc9a7000000000000000000000000000000000000000000000000000000007bffffffffffffffffffffffffffffffffffffffffffffffffffffffff1916827bffffffffffffffffffffffffffffffffffffffffffffffffffffffff1916149050919050565b6000806110bf8361139a565b9050600073ffffffffffffffffffffffffffffffffffffffff168173ffffffffffffffffffffffffffffffffffffffff160361113257826040517f7e273289000000000000000000000000000000000000000000000000000000008152600401611129919061207b565b60405180910390fd5b80915050919050565b60006004600083815260200190815260200160002060009054906101000a900473ffffffffffffffffffffffffffffffffffffffff169050919050565b600033905090565b60008061118c8461139a565b9050600073ffffffffffffffffffffffffffffffffffffffff168373ffffffffffffffffffffffffffffffffffffffff16146111ce576111cd8184866118d9565b5b600073ffffffffffffffffffffffffffffffffffffffff168173ffffffffffffffffffffffffffffffffffffffff161461125f5761121060008560008061199d565b6001600360008373ffffffffffffffffffffffffffffffffffffffff1673ffffffffffffffffffffffffffffffffffffffff168152602001908152602001600020600082825403925050819055505b600073ffffffffffffffffffffffffffffffffffffffff168573ffffffffffffffffffffffffffffffffffffffff16146112e2576001600360008773ffffffffffffffffffffffffffffffffffffffff1673ffffffffffffffffffffffffffffffffffffffff168152602001908152602001600020600082825401925050819055505b846002600086815260200190815260200160002060006101000a81548173ffffffffffffffffffffffffffffffffffffffff021916908373ffffffffffffffffffffffffffffffffffffffff160217905550838573ffffffffffffffffffffffffffffffffffffffff168273ffffffffffffffffffffffffffffffffffffffff167fddf252ad1be2c89b69c2b068fc378daa952ba7f163c4a11628f55a4df523b3ef60405160405180910390a4809150509392505050565b60006002600083815260200190815260200160002060009054906101000a900473ffffffffffffffffffffffffffffffffffffffff169050919050565b6113df611178565b73ffffffffffffffffffffffffffffffffffffffff166113fd6109a3565b73ffffffffffffffffffffffffffffffffffffffff161461145c57611420611178565b6040517f118cdaa70000000000000000000000000000000000000000000000000000000081526004016114539190611f65565b60405180910390fd5b565b600061146d6000836000611180565b9050600073ffffffffffffffffffffffffffffffffffffffff168173ffffffffffffffffffffffffffffffffffffffff16036114e057816040517f7e2732890000000000000000000000000000000000000000000000000000000081526004016114d7919061207b565b60405180910390fd5b5050565b6000600660009054906101000a900473ffffffffffffffffffffffffffffffffffffffff16905081600660006101000a81548173ffffffffffffffffffffffffffffffffffffffff021916908373ffffffffffffffffffffffffffffffffffffffff1602179055508173ffffffffffffffffffffffffffffffffffffffff168173ffffffffffffffffffffffffffffffffffffffff167f8be0079c531659141344cd1fd0a4f28419497f9722a3daafe3b4186f6b6457e060405160405180910390a35050565b6115c4828260405180602001604052806000815250611b62565b5050565b60008373ffffffffffffffffffffffffffffffffffffffff163b1115611772578273ffffffffffffffffffffffffffffffffffffffff1663150b7a02868685856040518563ffffffff1660e01b81526004016116279493929190612a75565b6020604051808303816000875af192505050801561166357506040513d601f19601f820116820180604052508101906116609190612ad6565b60015b6116e7573d8060008114611693576040519150601f19603f3d011682016040523d82523d6000602084013e611698565b606091505b5060008151036116df57836040517f64a0ae920000000000000000000000000000000000000000000000000000000081526004016116d69190611f65565b60405180910390fd5b805160208201fd5b63150b7a0260e01b7bffffffffffffffffffffffffffffffffffffffffffffffffffffffff1916817bffffffffffffffffffffffffffffffffffffffffffffffffffffffff19161461177057836040517f64a0ae920000000000000000000000000000000000000000000000000000000081526004016117679190611f65565b60405180910390fd5b505b5050505050565b6060600082036117c0576040518060400160405280600181526020017f300000000000000000000000000000000000000000000000000000000000000081525090506118d4565b600082905060005b600082146117f25780806117db90612725565b915050600a826117eb9190612b32565b91506117c8565b60008167ffffffffffffffff81111561180e5761180d612185565b5b6040519080825280601f01601f1916602001820160405280156118405781602001600182028036833780820191505090505b5090505b600085146118cd5760018261185991906126c2565b9150600a856118689190612b63565b60306118749190612b94565b60f81b81838151811061188a57611889612664565b5b60200101907effffffffffffffffffffffffffffffffffffffffffffffffffffffffffffff1916908160001a905350600a856118c69190612b32565b9450611844565b8093505050505b919050565b6118e4838383611b86565b61199857600073ffffffffffffffffffffffffffffffffffffffff168373ffffffffffffffffffffffffffffffffffffffff160361195957806040517f7e273289000000000000000000000000000000000000000000000000000000008152600401611950919061207b565b60405180910390fd5b81816040517f177e802f00000000000000000000000000000000000000000000000000000000815260040161198f929190612bc8565b60405180910390fd5b505050565b80806119d65750600073ffffffffffffffffffffffffffffffffffffffff168273ffffffffffffffffffffffffffffffffffffffff1614155b15611b0a5760006119e6846110b3565b9050600073ffffffffffffffffffffffffffffffffffffffff168373ffffffffffffffffffffffffffffffffffffffff1614158015611a5157508273ffffffffffffffffffffffffffffffffffffffff168173ffffffffffffffffffffffffffffffffffffffff1614155b8015611a645750611a628184610f2f565b155b15611aa657826040517fa9fbf51f000000000000000000000000000000000000000000000000000000008152600401611a9d9190611f65565b60405180910390fd5b8115611b0857838573ffffffffffffffffffffffffffffffffffffffff168273ffffffffffffffffffffffffffffffffffffffff167f8c5be1e5ebec7d5bd14f71427d1e84f3dd0314c0f7b2291e5b200ac8c7c3b92560405160405180910390a45b505b836004600085815260200190815260200160002060006101000a81548173ffffffffffffffffffffffffffffffffffffffff021916908373ffffffffffffffffffffffffffffffffffffffff16021790555050505050565b611b6c8383611c47565b611b81611b77611178565b60008585856115c8565b505050565b60008073ffffffffffffffffffffffffffffffffffffffff168373ffffffffffffffffffffffffffffffffffffffff1614158015611c3e57508273ffffffffffffffffffffffffffffffffffffffff168473ffffffffffffffffffffffffffffffffffffffff161480611bff5750611bfe8484610f2f565b5b80611c3d57508273ffffffffffffffffffffffffffffffffffffffff16611c258361113b565b73ffffffffffffffffffffffffffffffffffffffff16145b5b90509392505050565b600073ffffffffffffffffffffffffffffffffffffffff168273ffffffffffffffffffffffffffffffffffffffff1603611cb95760006040517f64a0ae92000000000000000000000000000000000000000000000000000000008152600401611cb09190611f65565b60405180910390fd5b6000611cc783836000611180565b9050600073ffffffffffffffffffffffffffffffffffffffff168173ffffffffffffffffffffffffffffffffffffffff1614611d3b5760006040517f73c6ac6e000000000000000000000000000000000000000000000000000000008152600401611d329190611f65565b60405180910390fd5b505050565b6000604051905090565b600080fd5b600080fd5b60007fffffffff0000000000000000000000000000000000000000000000000000000082169050919050565b611d8981611d54565b8114611d9457600080fd5b50565b600081359050611da681611d80565b92915050565b600060208284031215611dc257611dc1611d4a565b5b6000611dd084828501611d97565b91505092915050565b60008115159050919050565b611dee81611dd9565b82525050565b6000602082019050611e096000830184611de5565b92915050565b600081519050919050565b600082825260208201905092915050565b60005b83811015611e49578082015181840152602081019050611e2e565b60008484015250505050565b6000601f19601f8301169050919050565b6000611e7182611e0f565b611e7b8185611e1a565b9350611e8b818560208601611e2b565b611e9481611e55565b840191505092915050565b60006020820190508181036000830152611eb98184611e66565b905092915050565b6000819050919050565b611ed481611ec1565b8114611edf57600080fd5b50565b600081359050611ef181611ecb565b92915050565b600060208284031215611f0d57611f0c611d4a565b5b6000611f1b84828501611ee2565b91505092915050565b600073ffffffffffffffffffffffffffffffffffffffff82169050919050565b6000611f4f82611f24565b9050919050565b611f5f81611f44565b82525050565b6000602082019050611f7a6000830184611f56565b92915050565b611f8981611f44565b8114611f9457600080fd5b50565b600081359050611fa681611f80565b92915050565b60008060408385031215611fc357611fc2611d4a565b5b6000611fd185828601611f97565b9250506020611fe285828601611ee2565b9150509250929050565b60008060006060848603121561200557612004611d4a565b5b600061201386828701611f97565b935050602061202486828701611f97565b925050604061203586828701611ee2565b9150509250925092565b60006020828403121561205557612054611d4a565b5b600061206384828501611f97565b91505092915050565b61207581611ec1565b82525050565b6000602082019050612090600083018461206c565b92915050565b61209f81611dd9565b81146120aa57600080fd5b50565b6000813590506120bc81612096565b92915050565b600080604083850312156120d9576120d8611d4a565b5b60006120e785828601611f97565b92505060206120f8858286016120ad565b9150509250929050565b600060ff82169050919050565b61211881612102565b811461212357600080fd5b50565b6000813590506121358161210f565b92915050565b6000806040838503121561215257612151611d4a565b5b600061216085828601611f97565b925050602061217185828601612126565b9150509250929050565b600080fd5b600080fd5b7f4e487b7100000000000000000000000000000000000000000000000000000000600052604160045260246000fd5b6121bd82611e55565b810181811067ffffffffffffffff821117156121dc576121db612185565b5b80604052505050565b60006121ef611d40565b90506121fb82826121b4565b919050565b600067ffffffffffffffff82111561221b5761221a612185565b5b61222482611e55565b9050602081019050919050565b82818337600083830152505050565b600061225361224e84612200565b6121e5565b90508281526020810184848401111561226f5761226e612180565b5b61227a848285612231565b509392505050565b600082601f8301126122975761229661217b565b5b81356122a7848260208601612240565b91505092915050565b600080600080608085870312156122ca576122c9611d4a565b5b60006122d887828801611f97565b94505060206122e987828801611f97565b93505060406122fa87828801611ee2565b925050606085013567ffffffffffffffff81111561231b5761231a611d4f565b5b61232787828801612282565b91505092959194509250565b600081519050919050565b600082825260208201905092915050565b6000819050602082019050919050565b61236881611ec1565b82525050565b600061237a838361235f565b60208301905092915050565b6000602082019050919050565b600061239e82612333565b6123a8818561233e565b93506123b38361234f565b8060005b838110156123e45781516123cb888261236e565b97506123d683612386565b9250506001810190506123b7565b5085935050505092915050565b600081519050919050565b600082825260208201905092915050565b6000819050602082019050919050565b61242681612102565b82525050565b6000612438838361241d565b60208301905092915050565b6000602082019050919050565b600061245c826123f1565b61246681856123fc565b93506124718361240d565b8060005b838110156124a2578151612489888261242c565b975061249483612444565b925050600181019050612475565b5085935050505092915050565b600060608201905081810360008301526124c98186612393565b905081810360208301526124dd8185612451565b905081810360408301526124f18184612393565b9050949350505050565b6000806040838503121561251257612511611d4a565b5b600061252085828601611f97565b925050602061253185828601611f97565b9150509250929050565b7f4e487b7100000000000000000000000000000000000000000000000000000000600052602260045260246000fd5b6000600282049050600182168061258257607f821691505b6020821081036125955761259461253b565b5b50919050565b7f477561726469616e42616467653a20617070726f76616c732064697361626c6560008201527f6400000000000000000000000000000000000000000000000000000000000000602082015250565b60006125f7602183611e1a565b91506126028261259b565b604082019050919050565b60006020820190508181036000830152612626816125ea565b9050919050565b60006060820190506126426000830186611f56565b61264f602083018561206c565b61265c6040830184611f56565b949350505050565b7f4e487b7100000000000000000000000000000000000000000000000000000000600052603260045260246000fd5b7f4e487b7100000000000000000000000000000000000000000000000000000000600052601160045260246000fd5b60006126cd82611ec1565b91506126d883611ec1565b92508282039050818111156126f0576126ef612693565b5b92915050565b7f4e487b7100000000000000000000000000000000000000000000000000000000600052603160045260246000fd5b600061273082611ec1565b91507fffffffffffffffffffffffffffffffffffffffffffffffffffffffffffffffff820361276257612761612693565b5b600182019050919050565b7f43616e6e6f74206d696e7420746f207a65726f20616464726573730000000000600082015250565b60006127a3601b83611e1a565b91506127ae8261276d565b602082019050919050565b600060208201905081810360008301526127d281612796565b9050919050565b6127e281612102565b82525050565b60006020820190506127fd60008301846127d9565b92915050565b7f4e6f6e6578697374656e7420746f6b656e000000000000000000000000000000600082015250565b6000612839601183611e1a565b915061284482612803565b602082019050919050565b600060208201905081810360008301526128688161282c565b9050919050565b600081905092915050565b7f646174613a6170706c69636174696f6e2f6a736f6e2c7b226e616d65223a224760008201527f7561726469616e20426164676520230000000000000000000000000000000000602082015250565b60006128d6602f8361286f565b91506128e18261287a565b602f82019050919050565b60006128f782611e0f565b612901818561286f565b9350612911818560208601611e2b565b80840191505092915050565b7f222c2261747472696275746573223a5b7b2274726169745f74797065223a227460008201527f797065222c2276616c7565223a22000000000000000000000000000000000000602082015250565b6000612979602e8361286f565b91506129848261291d565b602e82019050919050565b7f227d5d7d00000000000000000000000000000000000000000000000000000000600082015250565b60006129c560048361286f565b91506129d08261298f565b600482019050919050565b60006129e6826128c9565b91506129f282856128ec565b91506129fd8261296c565b9150612a0982846128ec565b9150612a14826129b8565b91508190509392505050565b600081519050919050565b600082825260208201905092915050565b6000612a4782612a20565b612a518185612a2b565b9350612a61818560208601611e2b565b612a6a81611e55565b840191505092915050565b6000608082019050612a8a6000830187611f56565b612a976020830186611f56565b612aa4604083018561206c565b8181036060830152612ab68184612a3c565b905095945050505050565b600081519050612ad081611d80565b92915050565b600060208284031215612aec57612aeb611d4a565b5b6000612afa84828501612ac1565b91505092915050565b7f4e487b7100000000000000000000000000000000000000000000000000000000600052601260045260246000fd5b6000612b3d82611ec1565b9150612b4883611ec1565b925082612b5857612b57612b03565b5b828204905092915050565b6000612b6e82611ec1565b9150612b7983611ec1565b925082612b8957612b88612b03565b5b828206905092915050565b6000612b9f82611ec1565b9150612baa83611ec1565b9250828201905080821115612bc257612bc1612693565b5b92915050565b6000604082019050612bdd6000830185611f56565b612bea602083018461206c565b939250505056fea2646970667358221220a32fd4dedb2679d3337d71db072aa3a6632f9c81680ae8686dff72616280c81364736f6c63430008140033",
  "linkReferences": {},
  "deployedLinkReferences": {}
}